{
  "address": "0x5FbDB2315678afecb367f032d93F642f64180aa3",
  "abi": [
    {
      "inputs": [
        {
          "internalType": "string",
          "name": "_symbol",
          "type": "string"
        },
        {
          "internalType": "string",
          "name": "_name",
          "type": "string"
        },
        {
          "internalType": "uint8",
          "name": "_decimals",
          "type": "uint8"
        }
      ],
      "stateMutability": "nonpayable",
      "type": "constructor"
    },
    {
      "anonymous": false,
      "inputs": [
        {
          "indexed": true,
          "internalType": "address",
          "name": "owner",
          "type": "address"
        },
        {
          "indexed": true,
          "internalType": "address",
          "name": "spender",
          "type": "address"
        },
        {
          "indexed": false,
          "internalType": "uint256",
          "name": "value",
          "type": "uint256"
        }
      ],
      "name": "Approval",
      "type": "event"
    },
    {
      "anonymous": false,
      "inputs": [
        {
          "indexed": true,
          "internalType": "address",
          "name": "from",
          "type": "address"
        },
        {
          "indexed": true,
          "internalType": "address",
          "name": "to",
          "type": "address"
        },
        {
          "indexed": false,
          "internalType": "uint256",
          "name": "value",
          "type": "uint256"
        }
      ],
      "name": "Transfer",
      "type": "event"
    },
    {
      "inputs": [
        {
          "internalType": "address",
          "name": "_owner",
          "type": "address"
        },
        {
          "internalType": "address",
          "name": "_spender",
          "type": "address"
        }
      ],
      "name": "allowance",
      "outputs": [
        {
          "internalType": "uint256",
          "name": "",
          "type": "uint256"
        }
      ],
      "stateMutability": "view",
      "type": "function"
    },
    {
      "inputs": [
        {
          "internalType": "address",
          "name": "_spender",
          "type": "address"
        },
        {
          "internalType": "uint256",
          "name": "_value",
          "type": "uint256"
        }
      ],
      "name": "approve",
      "outputs": [
        {
          "internalType": "bool",
          "name": "",
          "type": "bool"
        }
      ],
      "stateMutability": "nonpayable",
      "type": "function"
    },
    {
      "inputs": [
        {
          "internalType": "address",
          "name": "_owner",
          "type": "address"
        }
      ],
      "name": "balanceOf",
      "outputs": [
        {
          "internalType": "uint256",
          "name": "",
          "type": "uint256"
        }
      ],
      "stateMutability": "view",
      "type": "function"
    },
    {
      "inputs": [],
      "name": "getName",
      "outputs": [
        {
          "internalType": "string",
          "name": "",
          "type": "string"
        }
      ],
      "stateMutability": "view",
      "type": "function"
    },
    {
      "inputs": [],
      "name": "getSymbol",
      "outputs": [
        {
          "internalType": "string",
          "name": "",
          "type": "string"
        }
      ],
      "stateMutability": "view",
      "type": "function"
    },
    {
      "inputs": [
        {
          "internalType": "address",
          "name": "_to",
          "type": "address"
        },
        {
          "internalType": "uint256",
          "name": "_value",
          "type": "uint256"
        }
      ],
      "name": "mint",
      "outputs": [
        {
          "internalType": "bool",
          "name": "",
          "type": "bool"
        }
      ],
      "stateMutability": "nonpayable",
      "type": "function"
    },
    {
      "inputs": [],
      "name": "totalSupply",
      "outputs": [
        {
          "internalType": "uint256",
          "name": "",
          "type": "uint256"
        }
      ],
      "stateMutability": "view",
      "type": "function"
    },
    {
      "inputs": [
        {
          "internalType": "address",
          "name": "_to",
          "type": "address"
        },
        {
          "internalType": "uint256",
          "name": "_value",
          "type": "uint256"
        }
      ],
      "name": "transfer",
      "outputs": [
        {
          "internalType": "bool",
          "name": "",
          "type": "bool"
        }
      ],
      "stateMutability": "nonpayable",
      "type": "function"
    },
    {
      "inputs": [
        {
          "internalType": "address",
          "name": "_from",
          "type": "address"
        },
        {
          "internalType": "address",
          "name": "_to",
          "type": "address"
        },
        {
          "internalType": "uint256",
          "name": "_value",
          "type": "uint256"
        }
      ],
      "name": "transferFrom",
      "outputs": [
        {
          "internalType": "bool",
          "name": "",
          "type": "bool"
        }
      ],
      "stateMutability": "nonpayable",
      "type": "function"
    }
  ],
  "transactionHash": "0x13af4821a6c98331639cc61aa90cbc64260848a9b79ddd7d5bce16a82b5ce815",
  "args": [
    "Hello",
    "sky",
    8
  ],
  "numDeployments": 1,
  "solcInputHash": "335f78ac2f7c0d9dfd86204aa095fcea",
  "bytecode": "0x60806040523480156200001157600080fd5b5060405162001aaf38038062001aaf83398181016040528101906200003791906200034a565b82600090816200004891906200062f565b5081600190816200005a91906200062f565b5080600260006101000a81548160ff021916908360ff1602179055506103e860058190555033600260016101000a81548173ffffffffffffffffffffffffffffffffffffffff021916908373ffffffffffffffffffffffffffffffffffffffff160217905550600554600360003373ffffffffffffffffffffffffffffffffffffffff1673ffffffffffffffffffffffffffffffffffffffff168152602001908152602001600020819055503373ffffffffffffffffffffffffffffffffffffffff16600073ffffffffffffffffffffffffffffffffffffffff167fddf252ad1be2c89b69c2b068fc378daa952ba7f163c4a11628f55a4df523b3ef60055460405162000168919062000727565b60405180910390a350505062000744565b6000604051905090565b600080fd5b600080fd5b600080fd5b600080fd5b6000601f19601f8301169050919050565b7f4e487b7100000000000000000000000000000000000000000000000000000000600052604160045260246000fd5b620001e28262000197565b810181811067ffffffffffffffff82111715620002045762000203620001a8565b5b80604052505050565b60006200021962000179565b9050620002278282620001d7565b919050565b600067ffffffffffffffff8211156200024a5762000249620001a8565b5b620002558262000197565b9050602081019050919050565b60005b838110156200028257808201518184015260208101905062000265565b60008484015250505050565b6000620002a56200029f846200022c565b6200020d565b905082815260208101848484011115620002c457620002c362000192565b5b620002d184828562000262565b509392505050565b600082601f830112620002f157620002f06200018d565b5b8151620003038482602086016200028e565b91505092915050565b600060ff82169050919050565b62000324816200030c565b81146200033057600080fd5b50565b600081519050620003448162000319565b92915050565b60008060006060848603121562000366576200036562000183565b5b600084015167ffffffffffffffff81111562000387576200038662000188565b5b6200039586828701620002d9565b935050602084015167ffffffffffffffff811115620003b957620003b862000188565b5b620003c786828701620002d9565b9250506040620003da8682870162000333565b9150509250925092565b600081519050919050565b7f4e487b7100000000000000000000000000000000000000000000000000000000600052602260045260246000fd5b600060028204905060018216806200043757607f821691505b6020821081036200044d576200044c620003ef565b5b50919050565b60008190508160005260206000209050919050565b60006020601f8301049050919050565b600082821b905092915050565b600060088302620004b77fffffffffffffffffffffffffffffffffffffffffffffffffffffffffffffffff8262000478565b620004c3868362000478565b95508019841693508086168417925050509392505050565b6000819050919050565b6000819050919050565b6000620005106200050a6200050484620004db565b620004e5565b620004db565b9050919050565b6000819050919050565b6200052c83620004ef565b620005446200053b8262000517565b84845462000485565b825550505050565b600090565b6200055b6200054c565b6200056881848462000521565b505050565b5b8181101562000590576200058460008262000551565b6001810190506200056e565b5050565b601f821115620005df57620005a98162000453565b620005b48462000468565b81016020851015620005c4578190505b620005dc620005d38562000468565b8301826200056d565b50505b505050565b600082821c905092915050565b60006200060460001984600802620005e4565b1980831691505092915050565b60006200061f8383620005f1565b9150826002028217905092915050565b6200063a82620003e4565b67ffffffffffffffff811115620006565762000655620001a8565b5b6200066282546200041e565b6200066f82828562000594565b600060209050601f831160018114620006a7576000841562000692578287015190505b6200069e858262000611565b8655506200070e565b601f198416620006b78662000453565b60005b82811015620006e157848901518255600182019150602085019450602081019050620006ba565b86831015620007015784890151620006fd601f891682620005f1565b8355505b6001600288020188555050505b505050505050565b6200072181620004db565b82525050565b60006020820190506200073e600083018462000716565b92915050565b61135b80620007546000396000f3fe608060405234801561001057600080fd5b50600436106100935760003560e01c806323b872dd1161006657806323b872dd1461012257806340c10f191461015257806370a0823114610182578063a9059cbb146101b2578063dd62ed3e146101e257610093565b8063095ea7b31461009857806315070401146100c857806317d7de7c146100e657806318160ddd14610104575b600080fd5b6100b260048036038101906100ad9190610e6c565b610212565b6040516100bf9190610ec7565b60405180910390f35b6100d061045a565b6040516100dd9190610f72565b60405180910390f35b6100ee6104ec565b6040516100fb9190610f72565b60405180910390f35b61010c61057e565b6040516101199190610fa3565b60405180910390f35b61013c60048036038101906101379190610fbe565b610588565b6040516101499190610ec7565b60405180910390f35b61016c60048036038101906101679190610e6c565b610963565b6040516101799190610ec7565b60405180910390f35b61019c60048036038101906101979190611011565b610a6e565b6040516101a99190610fa3565b60405180910390f35b6101cc60048036038101906101c79190610e6c565b610ab7565b6040516101d99190610ec7565b60405180910390f35b6101fc60048036038101906101f7919061103e565b610d4c565b6040516102099190610fa3565b60405180910390f35b6000600260019054906101000a900473ffffffffffffffffffffffffffffffffffffffff1673ffffffffffffffffffffffffffffffffffffffff163373ffffffffffffffffffffffffffffffffffffffff16146102a4576040517f08c379a000000000000000000000000000000000000000000000000000000000815260040161029b906110ca565b60405180910390fd5b600360008473ffffffffffffffffffffffffffffffffffffffff1673ffffffffffffffffffffffffffffffffffffffff16815260200190815260200160002054821115610326576040517f08c379a000000000000000000000000000000000000000000000000000000000815260040161031d90611136565b60405180910390fd5b81600460008573ffffffffffffffffffffffffffffffffffffffff1673ffffffffffffffffffffffffffffffffffffffff1681526020019081526020016000206000600260019054906101000a900473ffffffffffffffffffffffffffffffffffffffff1673ffffffffffffffffffffffffffffffffffffffff1673ffffffffffffffffffffffffffffffffffffffff16815260200190815260200160002081905550600260019054906101000a900473ffffffffffffffffffffffffffffffffffffffff1673ffffffffffffffffffffffffffffffffffffffff168373ffffffffffffffffffffffffffffffffffffffff167f8c5be1e5ebec7d5bd14f71427d1e84f3dd0314c0f7b2291e5b200ac8c7c3b925846040516104489190610fa3565b60405180910390a36001905092915050565b60606000805461046990611185565b80601f016020809104026020016040519081016040528092919081815260200182805461049590611185565b80156104e25780601f106104b7576101008083540402835291602001916104e2565b820191906000526020600020905b8154815290600101906020018083116104c557829003601f168201915b5050505050905090565b6060600180546104fb90611185565b80601f016020809104026020016040519081016040528092919081815260200182805461052790611185565b80156105745780601f1061054957610100808354040283529160200191610574565b820191906000526020600020905b81548152906001019060200180831161055757829003601f168201915b5050505050905090565b6000600554905090565b6000600260019054906101000a900473ffffffffffffffffffffffffffffffffffffffff1673ffffffffffffffffffffffffffffffffffffffff163373ffffffffffffffffffffffffffffffffffffffff161461061a576040517f08c379a000000000000000000000000000000000000000000000000000000000815260040161061190611202565b60405180910390fd5b81600460008673ffffffffffffffffffffffffffffffffffffffff1673ffffffffffffffffffffffffffffffffffffffff1681526020019081526020016000206000600260019054906101000a900473ffffffffffffffffffffffffffffffffffffffff1673ffffffffffffffffffffffffffffffffffffffff1673ffffffffffffffffffffffffffffffffffffffff1681526020019081526020016000205410156106fb576040517f08c379a00000000000000000000000000000000000000000000000000000000081526004016106f290611136565b60405180910390fd5b81600460008673ffffffffffffffffffffffffffffffffffffffff1673ffffffffffffffffffffffffffffffffffffffff1681526020019081526020016000206000600260019054906101000a900473ffffffffffffffffffffffffffffffffffffffff1673ffffffffffffffffffffffffffffffffffffffff1673ffffffffffffffffffffffffffffffffffffffff168152602001908152602001600020546107a59190611251565b600460008673ffffffffffffffffffffffffffffffffffffffff1673ffffffffffffffffffffffffffffffffffffffff1681526020019081526020016000206000600260019054906101000a900473ffffffffffffffffffffffffffffffffffffffff1673ffffffffffffffffffffffffffffffffffffffff1673ffffffffffffffffffffffffffffffffffffffff1681526020019081526020016000208190555081600360008673ffffffffffffffffffffffffffffffffffffffff1673ffffffffffffffffffffffffffffffffffffffff16815260200190815260200160002060008282546108969190611251565b9250508190555081600360008573ffffffffffffffffffffffffffffffffffffffff1673ffffffffffffffffffffffffffffffffffffffff16815260200190815260200160002060008282546108ec9190611285565b925050819055508273ffffffffffffffffffffffffffffffffffffffff168473ffffffffffffffffffffffffffffffffffffffff167fddf252ad1be2c89b69c2b068fc378daa952ba7f163c4a11628f55a4df523b3ef846040516109509190610fa3565b60405180910390a3600190509392505050565b60003373ffffffffffffffffffffffffffffffffffffffff16600260019054906101000a900473ffffffffffffffffffffffffffffffffffffffff1673ffffffffffffffffffffffffffffffffffffffff16146109f5576040517f08c379a00000000000000000000000000000000000000000000000000000000081526004016109ec90611305565b60405180910390fd5b8160056000828254610a079190611285565b9250508190555081600360008573ffffffffffffffffffffffffffffffffffffffff1673ffffffffffffffffffffffffffffffffffffffff1681526020019081526020016000206000828254610a5d9190611285565b925050819055506001905092915050565b6000600360008373ffffffffffffffffffffffffffffffffffffffff1673ffffffffffffffffffffffffffffffffffffffff168152602001908152602001600020549050919050565b6000600260019054906101000a900473ffffffffffffffffffffffffffffffffffffffff1673ffffffffffffffffffffffffffffffffffffffff163373ffffffffffffffffffffffffffffffffffffffff1614610b49576040517f08c379a0000000000000000000000000000000000000000000000000000000008152600401610b4090611202565b60405180910390fd5b60036000600260019054906101000a900473ffffffffffffffffffffffffffffffffffffffff1673ffffffffffffffffffffffffffffffffffffffff1673ffffffffffffffffffffffffffffffffffffffff16815260200190815260200160002054821115610bed576040517f08c379a0000000000000000000000000000000000000000000000000000000008152600401610be490611136565b60405180910390fd5b8160036000600260019054906101000a900473ffffffffffffffffffffffffffffffffffffffff1673ffffffffffffffffffffffffffffffffffffffff1673ffffffffffffffffffffffffffffffffffffffff1681526020019081526020016000206000828254610c5e9190611251565b9250508190555081600360008573ffffffffffffffffffffffffffffffffffffffff1673ffffffffffffffffffffffffffffffffffffffff1681526020019081526020016000206000828254610cb49190611285565b925050819055508273ffffffffffffffffffffffffffffffffffffffff16600260019054906101000a900473ffffffffffffffffffffffffffffffffffffffff1673ffffffffffffffffffffffffffffffffffffffff167fddf252ad1be2c89b69c2b068fc378daa952ba7f163c4a11628f55a4df523b3ef84604051610d3a9190610fa3565b60405180910390a36001905092915050565b6000600460008473ffffffffffffffffffffffffffffffffffffffff1673ffffffffffffffffffffffffffffffffffffffff16815260200190815260200160002060008373ffffffffffffffffffffffffffffffffffffffff1673ffffffffffffffffffffffffffffffffffffffff16815260200190815260200160002054905092915050565b600080fd5b600073ffffffffffffffffffffffffffffffffffffffff82169050919050565b6000610e0382610dd8565b9050919050565b610e1381610df8565b8114610e1e57600080fd5b50565b600081359050610e3081610e0a565b92915050565b6000819050919050565b610e4981610e36565b8114610e5457600080fd5b50565b600081359050610e6681610e40565b92915050565b60008060408385031215610e8357610e82610dd3565b5b6000610e9185828601610e21565b9250506020610ea285828601610e57565b9150509250929050565b60008115159050919050565b610ec181610eac565b82525050565b6000602082019050610edc6000830184610eb8565b92915050565b600081519050919050565b600082825260208201905092915050565b60005b83811015610f1c578082015181840152602081019050610f01565b60008484015250505050565b6000601f19601f8301169050919050565b6000610f4482610ee2565b610f4e8185610eed565b9350610f5e818560208601610efe565b610f6781610f28565b840191505092915050565b60006020820190508181036000830152610f8c8184610f39565b905092915050565b610f9d81610e36565b82525050565b6000602082019050610fb86000830184610f94565b92915050565b600080600060608486031215610fd757610fd6610dd3565b5b6000610fe586828701610e21565b9350506020610ff686828701610e21565b925050604061100786828701610e57565b9150509250925092565b60006020828403121561102757611026610dd3565b5b600061103584828501610e21565b91505092915050565b6000806040838503121561105557611054610dd3565b5b600061106385828601610e21565b925050602061107485828601610e21565b9150509250929050565b7f6e6f7420617574686f72697a656420617070726f76616c000000000000000000600082015250565b60006110b4601783610eed565b91506110bf8261107e565b602082019050919050565b600060208201905081810360008301526110e3816110a7565b9050919050565b7f6e6f7420656e6f75676820746f6b656e00000000000000000000000000000000600082015250565b6000611120601083610eed565b915061112b826110ea565b602082019050919050565b6000602082019050818103600083015261114f81611113565b9050919050565b7f4e487b7100000000000000000000000000000000000000000000000000000000600052602260045260246000fd5b6000600282049050600182168061119d57607f821691505b6020821081036111b0576111af611156565b5b50919050565b7f6e6f7420617574686f72697a6564000000000000000000000000000000000000600082015250565b60006111ec600e83610eed565b91506111f7826111b6565b602082019050919050565b6000602082019050818103600083015261121b816111df565b9050919050565b7f4e487b7100000000000000000000000000000000000000000000000000000000600052601160045260246000fd5b600061125c82610e36565b915061126783610e36565b925082820390508181111561127f5761127e611222565b5b92915050565b600061129082610e36565b915061129b83610e36565b92508282019050808211156112b3576112b2611222565b5b92915050565b7f556e617574686f72697a65640000000000000000000000000000000000000000600082015250565b60006112ef600c83610eed565b91506112fa826112b9565b602082019050919050565b6000602082019050818103600083015261131e816112e2565b905091905056fea2646970667358221220bb22ecc7c4c838461da79307ac68982087c2657304bde43372bd23e53b04679e64736f6c63430008120033",
  "devdoc": {
    "kind": "dev",
    "methods": {},
    "title": "A Contract for token",
    "version": 1
  },
  "userdoc": {
    "kind": "user",
    "methods": {},
    "notice": "You can use this contract to make token",
    "version": 1
  },
  "storageLayout": {
    "storage": [
      {
        "astId": 73,
        "contract": "contracts/token.sol:ERC20",
        "label": "symbol",
        "offset": 0,
        "slot": "0",
        "type": "t_string_storage"
      },
      {
        "astId": 75,
        "contract": "contracts/token.sol:ERC20",
        "label": "name",
        "offset": 0,
        "slot": "1",
        "type": "t_string_storage"
      },
      {
        "astId": 77,
        "contract": "contracts/token.sol:ERC20",
        "label": "decimals",
        "offset": 0,
        "slot": "2",
        "type": "t_uint8"
      },
      {
        "astId": 79,
        "contract": "contracts/token.sol:ERC20",
        "label": "owner",
        "offset": 1,
        "slot": "2",
        "type": "t_address"
      },
      {
        "astId": 83,
        "contract": "contracts/token.sol:ERC20",
        "label": "balances",
        "offset": 0,
        "slot": "3",
        "type": "t_mapping(t_address,t_uint256)"
      },
      {
        "astId": 89,
        "contract": "contracts/token.sol:ERC20",
        "label": "allowed",
        "offset": 0,
        "slot": "4",
        "type": "t_mapping(t_address,t_mapping(t_address,t_uint256))"
      },
      {
        "astId": 91,
        "contract": "contracts/token.sol:ERC20",
        "label": "TotalSupply",
        "offset": 0,
        "slot": "5",
        "type": "t_uint256"
      }
    ],
    "types": {
      "t_address": {
        "encoding": "inplace",
        "label": "address",
        "numberOfBytes": "20"
      },
      "t_mapping(t_address,t_mapping(t_address,t_uint256))": {
        "encoding": "mapping",
        "key": "t_address",
        "label": "mapping(address => mapping(address => uint256))",
        "numberOfBytes": "32",
        "value": "t_mapping(t_address,t_uint256)"
      },
      "t_mapping(t_address,t_uint256)": {
        "encoding": "mapping",
        "key": "t_address",
        "label": "mapping(address => uint256)",
        "numberOfBytes": "32",
        "value": "t_uint256"
      },
      "t_string_storage": {
        "encoding": "bytes",
        "label": "string",
        "numberOfBytes": "32"
      },
      "t_uint256": {
        "encoding": "inplace",
        "label": "uint256",
        "numberOfBytes": "32"
      },
      "t_uint8": {
        "encoding": "inplace",
        "label": "uint8",
        "numberOfBytes": "1"
      }
    }
  }
}